{
  "address": "0x1429859428C0aBc9C2C47C8Ee9FBaf82cFA0F20f",
  "abi": [
    {
      "inputs": [
        {
          "internalType": "address",
          "name": "exampleExternalContractAddress",
          "type": "address"
        }
      ],
      "stateMutability": "nonpayable",
      "type": "constructor"
    },
    {
      "inputs": [],
      "name": "Staker__NotOpenForWithdraw",
      "type": "error"
    },
    {
      "inputs": [],
      "name": "Staker__TransferFailed",
      "type": "error"
    },
    {
      "anonymous": false,
      "inputs": [
        {
          "indexed": true,
          "internalType": "address",
          "name": "sender",
          "type": "address"
        },
        {
          "indexed": false,
          "internalType": "uint256",
          "name": "amount",
          "type": "uint256"
        }
      ],
      "name": "Stake",
      "type": "event"
    },
    {
      "inputs": [
        {
          "internalType": "address",
          "name": "",
          "type": "address"
        }
      ],
      "name": "balances",
      "outputs": [
        {
          "internalType": "uint256",
          "name": "",
          "type": "uint256"
        }
      ],
      "stateMutability": "view",
      "type": "function"
    },
    {
      "inputs": [],
      "name": "deadline",
      "outputs": [
        {
          "internalType": "uint256",
          "name": "",
          "type": "uint256"
        }
      ],
      "stateMutability": "view",
      "type": "function"
    },
    {
      "inputs": [],
      "name": "exampleExternalContract",
      "outputs": [
        {
          "internalType": "contract ExampleExternalContract",
          "name": "",
          "type": "address"
        }
      ],
      "stateMutability": "view",
      "type": "function"
    },
    {
      "inputs": [],
      "name": "execute",
      "outputs": [],
      "stateMutability": "nonpayable",
      "type": "function"
    },
    {
      "inputs": [],
      "name": "openForWithdraw",
      "outputs": [
        {
          "internalType": "bool",
          "name": "",
          "type": "bool"
        }
      ],
      "stateMutability": "view",
      "type": "function"
    },
    {
      "inputs": [],
      "name": "stake",
      "outputs": [],
      "stateMutability": "payable",
      "type": "function"
    },
    {
      "inputs": [],
      "name": "threshold",
      "outputs": [
        {
          "internalType": "uint256",
          "name": "",
          "type": "uint256"
        }
      ],
      "stateMutability": "view",
      "type": "function"
    },
    {
      "inputs": [],
      "name": "timeLeft",
      "outputs": [
        {
          "internalType": "uint256",
          "name": "",
          "type": "uint256"
        }
      ],
      "stateMutability": "view",
      "type": "function"
    },
    {
      "inputs": [],
      "name": "withdraw",
      "outputs": [],
      "stateMutability": "nonpayable",
      "type": "function"
    },
    {
      "stateMutability": "payable",
      "type": "receive"
    }
  ],
  "transactionHash": "0xbede38372263b79b9bf3e17f93db3488cd4c074bd16d6ea8cb28e621724b55cb",
  "args": [
    "0xcbEAF3BDe82155F56486Fb5a1072cb8baAf547cc"
  ],
  "solcInputHash": "3470220799e2cf54e153686b507fddc0",
  "bytecode": "0x608060405261000f42601e61009a565b6003556004805460ff1916905534801561002857600080fd5b5060405161061a38038061061a8339810160408190526100479161006c565b600080546001600160a01b0319166001600160a01b03929092169190911790556100be565b60006020828403121561007d578081fd5b81516001600160a01b0381168114610093578182fd5b9392505050565b600082198211156100b957634e487b7160e01b81526011600452602481fd5b500190565b61054d806100cd6000396000f3fe60806040526004361061008a5760003560e01c80633ccfd60b116100595780633ccfd60b1461011157806342cde4e81461012657806361461954146101425780639876a643146101575780639f75f2271461018157600080fd5b80631300a6d11461009e57806327e235e3146100c657806329dcb0cf146100f35780633a4b66f11461010957600080fd5b36610099576100976101b9565b005b600080fd5b3480156100aa57600080fd5b506100b3610257565b6040519081526020015b60405180910390f35b3480156100d257600080fd5b506100b36100e1366004610461565b60016020526000908152604090205481565b3480156100ff57600080fd5b506100b360035481565b6100976101b9565b34801561011d57600080fd5b50610097610282565b34801561013257600080fd5b506100b3670de0b6b3a764000081565b34801561014e57600080fd5b50610097610325565b34801561016357600080fd5b506004546101719060ff1681565b60405190151581526020016100bd565b34801561018d57600080fd5b506000546101a1906001600160a01b031681565b6040516001600160a01b0390911681526020016100bd565b33600090815260016020526040812080543492906101d890849061048f565b9091555050600280546001810182556000919091527f405787fa12a823e0f2b7631cc41b3ba8828b3321ca811111fa75cd3aa3bb5ace0180546001600160a01b031916339081179091556040513481527febedb8b3c678666e7f36970bc8f57abf6d8fa2e828c0da91ea5b75bf68ed101a9060200160405180910390a2565b6000806000905060004260035461026e91906104a7565b90506000811261027c578091505b50919050565b60045460ff166102a557604051632450d93560e21b815260040160405180910390fd5b33600081815260016020526040808220805490839055905190929083908381818185875af1925050503d80600081146102fa576040519150601f19603f3d011682016040523d82523d6000602084013e6102ff565b606091505b50509050806103215760405163eeb643b160e01b815260040160405180910390fd5b5050565b60035442111561042557670de0b6b3a764000047106104175760008054906101000a90046001600160a01b03166001600160a01b031663522e1177476040518263ffffffff1660e01b81526004016000604051808303818588803b15801561038c57600080fd5b505af11580156103a0573d6000803e3d6000fd5b505050505060005b60025481101561040a576000600282815481106103d557634e487b7160e01b600052603260045260246000fd5b60009182526020808320909101546001600160a01b031682526001905260408120555080610402816104e6565b9150506103a8565b5061041760026000610427565b6004805460ff191660011790555b565b50805460008255906000526020600020908101906104459190610448565b50565b5b8082111561045d5760008155600101610449565b5090565b600060208284031215610472578081fd5b81356001600160a01b0381168114610488578182fd5b9392505050565b600082198211156104a2576104a2610501565b500190565b60008083128015600160ff1b8501841216156104c5576104c5610501565b6001600160ff1b03840183138116156104e0576104e0610501565b50500390565b60006000198214156104fa576104fa610501565b5060010190565b634e487b7160e01b600052601160045260246000fdfea264697066735822122021b357f40bc01a85a959359e400d5bc22eb2e84bb6237fe83ee801482a68f1dc64736f6c63430008040033",
  "devdoc": {
    "kind": "dev",
    "methods": {},
    "version": 1
  },
  "userdoc": {
    "kind": "user",
    "methods": {},
    "version": 1
  },
  "storageLayout": {
    "storage": [
      {
        "astId": 23,
        "contract": "contracts/Staker.sol:Staker",
        "label": "exampleExternalContract",
        "offset": 0,
        "slot": "0",
        "type": "t_contract(ExampleExternalContract)12"
      },
      {
        "astId": 45,
        "contract": "contracts/Staker.sol:Staker",
        "label": "balances",
        "offset": 0,
        "slot": "1",
        "type": "t_mapping(t_address,t_uint256)"
      },
      {
        "astId": 48,
        "contract": "contracts/Staker.sol:Staker",
        "label": "participants",
        "offset": 0,
        "slot": "2",
        "type": "t_array(t_address)dyn_storage"
      },
      {
        "astId": 57,
        "contract": "contracts/Staker.sol:Staker",
        "label": "deadline",
        "offset": 0,
        "slot": "3",
        "type": "t_uint256"
      },
      {
        "astId": 60,
        "contract": "contracts/Staker.sol:Staker",
        "label": "openForWithdraw",
        "offset": 0,
        "slot": "4",
        "type": "t_bool"
      }
    ],
    "types": {
      "t_address": {
        "encoding": "inplace",
        "label": "address",
        "numberOfBytes": "20"
      },
      "t_array(t_address)dyn_storage": {
        "base": "t_address",
        "encoding": "dynamic_array",
        "label": "address[]",
        "numberOfBytes": "32"
      },
      "t_bool": {
        "encoding": "inplace",
        "label": "bool",
        "numberOfBytes": "1"
      },
      "t_contract(ExampleExternalContract)12": {
        "encoding": "inplace",
        "label": "contract ExampleExternalContract",
        "numberOfBytes": "20"
      },
      "t_mapping(t_address,t_uint256)": {
        "encoding": "mapping",
        "key": "t_address",
        "label": "mapping(address => uint256)",
        "numberOfBytes": "32",
        "value": "t_uint256"
      },
      "t_uint256": {
        "encoding": "inplace",
        "label": "uint256",
        "numberOfBytes": "32"
      }
    }
  }
}